:020000040800F2
:1000000000000220D92400085122000859220008CB
:100010006122000869220008712200080000000027
:10002000000000000000000000000000792200082D
:10003000872200080000000095220008A322000883
:100040002925000829250008292500082925000858
:100050002925000829250008292500082925000848
:100060002925000829250008292500082925000838
:100070002925000829250008292500082925000828
:10008000292500082925000829250008000000006E
:10009000000000000000000000000000292500080A
:1000A000B122000829250008292500082925000873
:1000B000C5220008D9220008ED22000829250008E1
:1000C00029250008292500082925000829250008D8
:1000D0002925000801230008292500080000000048
:1000E000292500082925000829250008000000000E
:1000F00000000000000000000000000029250008AA
:100100000000000029250008152300082925000803
:1001100000000000000000000000000000000000DF
:100120002925000829250008292500082925000877
:100130002925000800000000000000000000000069
:100140000000000000000000000000002925000859
:100150002925000829250008292500082925000847
:1001600029250008292500080000000000000000E3
:10017000000000000000000000000000000000007F
:100180000000000029250008000000000000000019
:080190002925000829250008BB
:1001A00010B5054C237833B9044B13B10448AFF3B1
:1001B00000800123237010BDD40100200000000046
:1001C00034A6000808B5034B1BB103490348AFF33D
:1001D000008008BD00000000D801002034A60008FF
:1001E00001F0FF01102A2BDB10F0070F08D010F8E8
:1001F000013B013A8B422DD010F0070F42B3F6D1EC
:10020000F0B441EA012141EA014122F007047FF004
:1002100000070023F0E80256083C85EA010586EA5B
:10022000010685FA47F5A3FA87F586FA47F6A5FA97
:1002300087F68EB9EED1F0BC01F0FF0102F00702A3
:1002400032B110F8013B013A83EA010313B1F8D14E
:100250000020704701387047002D06BF354603382F
:10026000073815F0010F07D1013015F4807F02BF68
:10027000013015F4C03F0130F0BC0138704700BFB9
:10028000034613F8012B002AFBD1181A01387047D6
:1002900081F0004102E000BF83F0004330B54FEA37
:1002A00041044FEA430594EA050F08BF90EA020FA4
:1002B0001FBF54EA000C55EA020C7FEA645C7FEA37
:1002C000655C00F0E2804FEA5454D4EB5555B8BF5A
:1002D0006D420CDD2C4480EA020281EA030382EACB
:1002E000000083EA010180EA020281EA0303362D5D
:1002F00088BF30BD11F0004F4FEA01314FF4801C30
:100300004CEA113102D0404261EB410113F0004F41
:100310004FEA03334CEA133302D0524263EB4303F8
:1003200094EA050F00F0A780A4F10104D5F1200E96
:100330000DDB02FA0EFC22FA05F2801841F10001F1
:1003400003FA0EF2801843FA05F359410EE0A5F1C5
:1003500020050EF1200E012A03FA0EFC28BF4CF0F6
:10036000020C43FA05F3C01851EBE37101F00045AC
:1003700007D54FF0000EDCF1000C7EEB00006EEBB9
:100380000101B1F5801F1BD3B1F5001F0CD3490843
:100390005FEA30004FEA3C0C04F101044FEA44529A
:1003A00012F5800F80F09A80BCF1004F08BF5FEA21
:1003B000500C50F1000041EB045141EA050130BD01
:1003C0005FEA4C0C404141EB0101013C28BFB1F513
:1003D000801FE9D291F0000F04BF01460020B1FA5E
:1003E00081F308BF2033A3F10B03B3F120020CDA31
:1003F0000C3208DD02F1140CC2F10C0201FA0CF00F
:1004000021FA02F10CE002F11402D8BFC2F1200C73
:1004100001FA02F120FA0CFCDCBF41EA0C01904029
:10042000E41AA2BF01EB0451294330BD6FEA040472
:100430001F3C1CDA0C340EDC04F11404C4F120025D
:1004400020FA04F001FA02F340EA030021FA04F36F
:1004500045EA030130BDC4F10C04C4F1200220FAC6
:1004600002F001FA04F340EA0300294630BD21FA04
:1004700004F0294630BD94F0000F83F4801306BFCA
:1004800081F480110134013D4EE77FEA645C18BFBE
:100490007FEA655C29D094EA050F08BF90EA020F55
:1004A00005D054EA000C04BF1946104630BD91EA4D
:1004B000030F1EBF0021002030BD5FEA545C05D150
:1004C0004000494128BF41F0004130BD14F580048F
:1004D0003CBF01F5801130BD01F0004545F0FE4103
:1004E00041F470014FF0000030BD7FEA645C1ABF38
:1004F000194610467FEA655C1CBF0B46024650EA6F
:10050000013406BF52EA033591EA030F41F400219A
:1005100030BD00BF90F0000F04BF0021704730B520
:100520004FF4806404F132044FF000054FF00001F5
:1005300050E700BF90F0000F04BF0021704730B5B6
:100540004FF4806404F1320410F0004548BF40428B
:100550004FF000013EE700BF42004FEAE2014FEAE0
:1005600031014FEA02701FBF12F07F4393F07F4FBB
:1005700081F06051704732F07F4208BF704793F0BE
:100580007F4F04BF41F40021704730B54FF46074D1
:1005900001F0004521F000411CE700BF50EA0102D4
:1005A00008BF704730B54FF000050AE050EA01027D
:1005B00008BF704730B511F0004502D5404261EBED
:1005C00041014FF4806404F132045FEA915C3FF42E
:1005D000D8AE4FF003025FEADC0C18BF03325FEACB
:1005E000DC0C18BF033202EBDC02C2F1200300FA7C
:1005F00003FC20FA02F001FA03FE40EA0E0021FAA1
:1006000002F11444BDE600BF70B54FF0FF0C4CF48E
:10061000E06C1CEA11541DBF1CEA135594EA0C0F40
:1006200095EA0C0F00F0DEF82C4481EA030621EA7B
:100630004C5123EA4C5350EA013518BF52EA0335B6
:1006400041F4801143F4801338D0A0FB02CE4FF068
:100650000005E1FB02E506F00042E0FB03E54FF098
:100660000006E1FB03569CF0000F18BF4EF0010E90
:10067000A4F1FF04B6F5007F64F5407404D25FEA8C
:100680004E0E6D4146EB060642EAC62141EA55513F
:100690004FEAC52040EA5E504FEACE2EB4F1FD0C81
:1006A00088BFBCF5E06F1ED8BEF1004F08BF5FEAFF
:1006B000500E50F1000041EB045170BD06F00046B1
:1006C00046EA010140EA020081EA0301B4EB5C045E
:1006D000C2BFD4EB0C0541EA045170BD41F4801156
:1006E0004FF0000E013C00F3AB8014F1360FDEBF7B
:1006F000002001F0004170BDC4F10004203C35DA57
:100700000C341BDC04F11404C4F1200500FA05F3D9
:1007100020FA04F001FA05F240EA020001F000427A
:1007200021F0004110EBD37021FA04F642EB0601F0
:100730005EEA430E08BF20EAD37070BDC4F10C041A
:10074000C4F1200500FA04F320FA05F001FA04F2DE
:1007500040EA020001F0004110EBD37041F10001CA
:100760005EEA430E08BF20EAD37070BDC4F12005D5
:1007700000FA05F24EEA020E20FA04F301FA05F23D
:1007800043EA020321FA04F001F0004121FA04F2E5
:1007900020EA020000EBD3705EEA430E08BF20EAB5
:1007A000D37070BD94F0000F0FD101F000464000EF
:1007B00041EB010111F4801F08BF013CF7D041EA71
:1007C000060195F0000F18BF704703F00046520075
:1007D00043EB030313F4801F08BF013DF7D043EA46
:1007E0000603704794EA0C0F0CEA135518BF95EAFC
:1007F0000C0F0CD050EA410618BF52EA4306D1D183
:1008000081EA030101F000414FF0000070BD50EAA1
:10081000410606BF1046194652EA430619D094EA2B
:100820000C0F02D150EA013613D195EA0C0F05D115
:1008300052EA03361CBF104619460AD181EA030169
:1008400001F0004141F0FE4141F470014FF0000021
:1008500070BD41F0FE4141F4780170BD70B54FF0BC
:10086000FF0C4CF4E06C1CEA11541DBF1CEA13553C
:1008700094EA0C0F95EA0C0F00F0A7F8A4EB05041E
:1008800081EA030E52EA03354FEA013100F0888015
:100890004FEA03334FF0805545EA131343EA1263DE
:1008A0004FEA022245EA111545EA10654FEA002693
:1008B0000EF000419D4208BF964244F1FD0404F54C
:1008C000407402D25B084FEA3202B61A65EB0305A8
:1008D0005B084FEA32024FF480104FF4002CB6EB65
:1008E000020E75EB030E22BFB61A754640EA0C00E5
:1008F0005B084FEA3202B6EB020E75EB030E22BF25
:10090000B61A754640EA5C005B084FEA3202B6EB65
:10091000020E75EB030E22BFB61A754640EA9C0024
:100920005B084FEA3202B6EB020E75EB030E22BFF4
:10093000B61A754640EADC0055EA060E18D04FEAB2
:10094000051545EA16754FEA06164FEAC30343EA52
:1009500052734FEAC2025FEA1C1CC0D111F4801F1F
:100960000BD141EA00014FF000004FF0004CB6E718
:1009700011F4801F04BF01430020B4F1FD0C88BFB7
:10098000BCF5E06F3FF6AFAEB5EB030C04BFB6EBC2
:10099000020C5FEA500C50F1000041EB045170BDB5
:1009A0000EF0004E4EEA113114EB5C04C2BFD4EBE2
:1009B0000C0541EA045170BD41F480114FF0000E66
:1009C000013C90E645EA060E8DE60CEA135594EAE2
:1009D0000C0F08BF95EA0C0F3FF43BAF94EA0C0FE5
:1009E0000AD150EA01347FF434AF95EA0C0F7FF45A
:1009F00025AF104619462CE795EA0C0F06D152EAAE
:100A000003353FF4FDAE1046194622E750EA410691
:100A100018BF52EA43067FF4C5AE50EA41047FF4A2
:100A20000DAF52EA43057FF4EBAE12E74FF0FF3C07
:100A300006E000BF4FF0010C02E000BF4FF0010CD8
:100A40004DF804CD4FEA410C7FEA6C5C4FEA430C51
:100A500018BF7FEA6C5C1BD001B050EA410C0CBFA0
:100A600052EA430C91EA030F02BF90EA020F002002
:100A7000704710F1000F91EA030F58BF994208BF69
:100A800090422CBFD8176FEAE37040F00100704726
:100A90004FEA410C7FEA6C5C02D150EA013C07D17D
:100AA0004FEA430C7FEA6C5CD6D152EA033CD3D0C8
:100AB0005DF8040B704700BF8446104662468C46C2
:100AC0001946634600E000BF01B5FFF7B7FF0028F5
:100AD00048BF10F1000F01BD4DF808EDFFF7F4FF1E
:100AE0000CBF012000205DF808FB00BF4DF808EDA9
:100AF000FFF7EAFF34BF012000205DF808FB00BFCC
:100B00004DF808EDFFF7E0FF94BF012000205DF8ED
:100B100008FB00BF4DF808EDFFF7CEFF94BF0120A2
:100B200000205DF808FB00BF4DF808EDFFF7C4FF9B
:100B300034BF012000205DF808FB00BF4FEA410CE4
:100B40007FEA6C5C02D150EA013C0AD14FEA430CC7
:100B50007FEA6C5C02D152EA033C02D14FF0000004
:100B600070474FF0010070474FEA410212F5001242
:100B700015D211D56FF47873B3EB625212D94FEAE4
:100B8000C12343F0004343EA505311F0004F23FACE
:100B900002F018BF404270474FF00000704750EA23
:100BA000013005D111F0004008BF6FF000407047E0
:100BB0004FF00000704700BF4A0011D212F500123A
:100BC00011D20DD56FF47873B3EB62520ED44FEAA5
:100BD000C12343F0004343EA505323FA02F0704725
:100BE0004FF00000704750EA013002D14FF0FF3063
:100BF00070474FF0000070474FEA4102B2F1E04306
:100C000024BFB3F5001CDCF1FE5C0DD901F0004CF3
:100C10004FEAC0024CEA5070B2F1004F40EB830043
:100C200008BF20F00100704711F0804F21D113F16F
:100C30003872BCBF01F00040704741F480114FEAA8
:100C40005252C2F11802C2F1200C10FA0CF320FA31
:100C500002F018BF40F001004FEAC1234FEAD3234E
:100C600003FA0CFC40EA0C0023FA02F34FEA4303B8
:100C7000CCE77FEA625307D150EA01331EBF4FF041
:100C8000FE4040F44000704701F0004040F0FE405C
:100C900040F40000704700BF53B94AB9002908BFAB
:100CA00000281CBF4FF0FF314FF0FF3000F0A0B91B
:100CB000ADF1080C6DE904CE00F03CF8DDF804E07D
:100CC000DDE9022304B0704738B500220023044652
:100CD0000D46FFF70BFF28B920462946BDE83840EE
:100CE00000F00AB8204605F1004100F005F8404246
:100CF00061EB410138BD00BFD0B50C4B0022064668
:100D00000F46FFF781FCFFF757FF0446FFF702FC91
:100D1000074B0022FFF778FC02460B463046394667
:100D2000FFF7BAFAFFF748FF2146D0BD0000F03DBB
:100D30000000F0412DE9F047089D0C46002B4ED1F4
:100D400094468C458646B2FA82F262D94AB1C2F123
:100D50002003914020FA03F30CFA02FC194300FA35
:100D600002FE4FEA1C471FFA8CF6B1FBF7F44FEA7C
:100D70001E4307FB141143EA014304FB06F19942A9
:100D80000AD91CEB030304F1FF3080F01281994271
:100D900040F20F81023C6344591A1FFA8EF3B1FBF3
:100DA000F7F007FB101143EA014300FB06F69E42F1
:100DB0000AD91CEB030300F1FF3180F0FC809E4256
:100DC00040F2F980634402389B1B40EA0440002152
:100DD0001DB1D3400022C5E90032BDE8F0878B4247
:100DE00005D90DB1C5E9000100210846F5E7B3FAC0
:100DF00083F1002946D1A34202D39042C0F0F08093
:100E0000861A64EB03030120002DE6D0C5E90063D8
:100E1000E3E7002A40F09080A1EB0C044FEA1C4865
:100E20001FFA8CF70121B4FBF8F64FEA1E4308FBCA
:100E3000164443EA044307FB06F0984208D91CEB2A
:100E4000030306F1FF3402D2984200F2CD80264619
:100E50001C1A1FFA8EF3B4FBF8F008FB104443EAA7
:100E6000044300FB07F79F4208D91CEB030300F182
:100E7000FF3402D29F4200F2B0802046DB1B40EAE2
:100E80000640A5E7C1F120068B4022FA06F71F4372
:100E900020FA06FC04FA01F343EA0C03F44000FADA
:100EA00001F8380C4FEA1349B4FBF0FE1FFA87FC37
:100EB00000FB1E4449EA04440EFB0CF9A14502FA6A
:100EC00001F20AD93C190EF1FF3A80F08480A14565
:100ED00040F28180AEF1020E3C44A4EB09041FFAFB
:100EE00083F9B4FBF0F300FB134449EA044403FB29
:100EF0000CFCA44507D93C1903F1FF3067D2A44587
:100F000065D9023B3C4443EA0E40A0FB0293A4EBAC
:100F10000C049C42CE469C4651D34ED055B1B8EB02
:100F20000E0364EB0C0404FA06F6CB401E43CC40DF
:100F3000C5E90064002150E7C2F1200320FA03F163
:100F40000CFA02FC24FA03F394400C434FEA1C48C9
:100F500000FA02FE1FFA8CF7B3FBF8F008FB103121
:100F6000230C43EA014300FB07F1994208D91CEB2B
:100F7000030300F1FF362CD299422AD90238634488
:100F80005B1AA4B2B3FBF8F108FB113344EA034443
:100F900001FB07F3A34208D91CEB040401F1FF365F
:100FA00013D2A34211D902396444E41A41EA004140
:100FB00039E70446F0E6084606E7C845AED2B9EB85
:100FC000020E63EB070C0138A8E73146EDE7034654
:100FD00099E73046D4E7D6467FE7634402384DE7C9
:100FE0000646234608460FE7023E634430E700BF4B
:100FF000704700BF90B583B000AF01F097FA00F0E2
:101000006BF800F053FB00F0FDF800F0A3F900F0DE
:10101000F5F900F047FA00F099FA00F0C5F800F091
:101020001BFB0021284802F09DFD0421264802F008
:1010300099FD00F021FC00F045FC0023FB7106E067
:10104000FB79224A2021D154FB790133FB71FB79D2
:10105000312BF5D94FF4FA6001F0DAFA1C4BB3F9F1
:101060000630A3F233431846FFF764FA4FF000024C
:10107000184BFFF7C9FA02460B4610461946FFF710
:1010800073FD0446124BB3F90430A3F23343184600
:10109000FFF750FA4FF000020E4BFFF7B5FA024689
:1010A0000B4610461946FFF75FFD0146084BB3F9A2
:1010B0000030A3F233431A46204600F019FC00F03A
:1010C00017FE00BFCAE700BF64030020F40300203E
:1010D000280400200000F83F80B594B000AF07F16D
:1010E000200330220021184605F0CBFE07F10C0347
:1010F00000221A605A609A60DA601A610023BB60AD
:10110000274B1B6C264A43F080531364244B1B6C03
:1011100003F08053BB60BB6800237B60214B1B68DE
:10112000204A43F4404313601E4B1B6803F44043C2
:101130007B607B6802233B620123FB6210233B63DD
:101140000223BB630023FB6308233B6460237B64AF
:101150000223BB640423FB6407F12003184601F05B
:1011600001FF0346002B01D000F011FE0F23FB60AE
:1011700002233B6100237B614FF48053BB6100235A
:10118000FB6107F10C030321184602F063F90346E3
:10119000002B01D000F0FBFD00BF5037BD4680BDE5
:1011A000003802400070004080B500AF124B134A77
:1011B0001A60114B124A5A600F4B00229A600E4B74
:1011C0000022DA600C4B4FF480421A610A4B002275
:1011D0005A61094B00229A61074B0022DA61064BE3
:1011E00000221A62044801F079FD0346002B01D069
:1011F00000F0CDFD00BF80BDF00100200054004094
:10120000A086010080B592B000AF07F14003002234
:101210001A605A6007F1240300221A605A609A602B
:10122000DA601A615A619A613B1D2022002118463A
:1012300005F027FE454B464A1A60444B4FF4BC72FA
:101240005A60424B00229A60404BFF22DA603F4BCB
:1012500000221A613D4B00225A613C4B00229A61E8
:101260003A4802F026FB0346002B01D000F08FFD28
:1012700000233B6400237B6407F140031946334895
:1012800003F046FE0346002B01D000F080FD6023F2
:101290007B620023BB620023FB6200233B630023CD
:1012A0007B630023BB630023FB6307F1240300225D
:1012B0001946264803F050F80346002B01D000F0F1
:1012C00066FD07F1240304221946204803F044F880
:1012D0000346002B01D000F05AFD07F12403082239
:1012E00019461A4803F038F80346002B01D000F0E5
:1012F0004EFD07F124030C221946144803F02CF884
:101300000346002B01D000F042FD00237B60002348
:10131000BB600023FB6000233B6100237B614FF433
:101320000053BB6100233B623B1D1946074803F095
:101330005DFE0346002B01D000F029FD034800F0BC
:10134000DDFE00BF4837BD4680BD00BF440200201F
:101350000000014080B58CB000AF07F10C032422DF
:101360000021184605F08DFD3B1D00221A605A60D1
:10137000214B4FF080421A601F4B00225A601E4BD7
:1013800000229A601C4B4FF6FF72DA601A4B002263
:101390001A61194B00229A610123FB6000233B6113
:1013A00001237B610023BB610023FB6100233B62BF
:1013B00001237B620023BB620023FB6207F10C0365
:1013C00019460D4802F0E8FC0346002B01D000F05E
:1013D000DEFC00237B600023BB603B1D19460648F2
:1013E00003F096FD0346002B01D000F0D0FC00BFB7
:1013F0003037BD4680BD00BF8C02002080B58CB068
:1014000000AF07F10C0324220021184605F039FD36
:101410003B1D00221A605A60204B214A1A601F4B64
:1014200000225A601D4B00229A601C4B4FF6FF723F
:10143000DA601A4B00221A61184B00229A610123CC
:10144000FB6000233B6101237B610023BB61002320
:10145000FB6100233B6201237B620023BB6200230C
:10146000FB6207F10C0319460C4802F095FC034699
:10147000002B01D000F08BFC00237B600023BB60BD
:101480003B1D1946054803F043FD0346002B01D0E0
:1014900000F07DFC00BF3037BD4680BDD402002087
:1014A0000004004080B58CB000AF07F10C0324228B
:1014B0000021184605F0E5FC3B1D00221A605A6029
:1014C000204B214A1A601F4B00225A601D4B0022FC
:1014D0009A601C4B4FF6FF72DA601A4B00221A61B9
:1014E000184B00229A610123FB6000233B6101231A
:1014F0007B610023BB610023FB6100233B6201236E
:101500007B620023BB620023FB6207F10C031946D8
:101510000C4802F041FC0346002B01D000F037FCE0
:1015200000237B600023BB603B1D1946054803F088
:10153000EFFC0346002B01D000F029FC00BF303740
:10154000BD4680BD1C0300200008004080B58CB063
:1015500000AF07F11C0300221A605A609A60DA603B
:101560001A6107F1140300221A605A603B1D002221
:101570001A605A609A60DA60354B364A1A60344B0A
:1015800061225A60324B00229A60314B4FF6FF7253
:10159000DA602F4B00221A612D4B00229A612C48F1
:1015A00002F038F90346002B01D000F0F0FB284888
:1015B00002F07EFA0346002B01D000F0E8FB042382
:1015C000FB6150233B6200237B620023FB6207F137
:1015D0001C0319461E4802F081FF0346002B01D070
:1015E00000F0D5FB00237B610023BB6107F11403EE
:1015F0001946174803F08CFC0346002B01D000F07D
:10160000C6FB00237B600123BB600023FB6000233B
:101610003B613B1D002219460D4802F001FE0346C6
:10162000002B01D000F0B3FB02237B600223BB60E0
:101630003B1D04221946064802F0F2FD0346002B2A
:1016400001D000F0A4FB00BF3037BD4680BD00BF15
:1016500064030020000C004080B500AF114B124A1B
:101660001A60104B4FF4E1325A600E4B00229A6020
:101670000C4B0022DA600B4B00221A61094B0C2242
:101680005A61084B00229A61064B0022DA61054834
:1016900003F012FD0346002B01D000F078FB00BFE1
:1016A00080BD00BFAC0300200010014080B588B0B1
:1016B00000AF07F10C0300221A605A609A60DA60EA
:1016C0001A610023BB60314B1B6B304A43F00403AB
:1016D00013632E4B1B6B03F00403BB60BB6800233A
:1016E0007B602A4B1B6B294A43F001031363274B92
:1016F0001B6B03F001037B607B6800233B60234B83
:101700001B6B224A43F002031363204B1B6B03F055
:1017100002033B603B6800224FF400511C4801F07B
:10172000C3FA00224FF207411A4801F0BDFA4FF404
:101730000053FB6001233B6100237B610023BB61FD
:1017400007F10C031946124801F02AF94FF48043BF
:10175000FB6000233B6100237B6107F10C0319460A
:101760000B4801F01DF94FF20743FB6001233B6179
:1017700000237B610023BB6107F10C031946054878
:1017800001F00EF900BF2037BD4680BD0038024091
:10179000000802400004024080B584B000AF7860C9
:1017A0007B681B68B3F1804F0AD17B681B685B6A5A
:1017B0009BB2A3F5FF437F3B9BB21AB2274B1A8023
:1017C0007B681B68264A93420AD17B681B685B6A68
:1017D0009BB2A3F5FF437F3B9BB21AB21F4B5A80CB
:1017E0007B681B681F4A93420AD17B681B685B6A4F
:1017F0009BB2A3F5FF437F3B9BB21AB2174B9A8073
:101800007B681B68184A934224D17B681B7F022B9C
:1018100020D10421154802F0A3FE0346FB81FB8979
:1018200041F28732934203D9114B00221A7011E022
:10183000FB89184600F094FA01460D4B1B781A46B6
:1018400009B20C4B23F81210094B1B780133DAB2A2
:10185000074B1A7000BF1037BD4680BD4C040020F6
:101860000004004000080040000C00406403002019
:10187000480400202804002080B500AF00210E4855
:1018800002F030FB0C4B1B6847F6FF725A620021D6
:101890000A4802F027FB094B1B6847F6FF725A62A1
:1018A0000021074802F01EFB054B1B6847F6FF723C
:1018B0005A6200BF80BD00BF8C020020D40200200D
:1018C0001C03002080B500AF0021084802F040F85A
:1018D0000421064802F03CF80821044802F038F8D8
:1018E0000C21024802F034F800BF80BD4402002001
:1018F0002DE9B04398B00AAF78613961FA60FB68AE
:101900005B421846FEF716FEA3A3D3E90023FEF7B9
:10191000A5FF02460B46C7E90C234FF000029A4B85
:10192000C7E90A237B695B427B613B695B423B61A0
:10193000D7E90A23D7E90C01FFF7F6F80346002B95
:1019400003D0D7E90A23C7E90C23BB6A3B60FB6AD3
:1019500083F000437B60D7E90023D7E90C01FFF750
:10196000C5F80346002B05D0BC6AFB6A83F000452E
:10197000C7E90C45D7E90C01FFF7F6F80346002B41
:10198000B8BF5B4201336FF0660202FB03F303F260
:10199000EC431846FEF7CEFD75A3D3E90023FEF70E
:1019A00033FE02460B4610461946FFF7DDF80346A4
:1019B0007B627A697B6A9A4201DD7B6A7B617B6A22
:1019C0005B427A699A4202DA7B6A5B427B613A69DE
:1019D0007B6A9A4201DD7B6A3B617B6A5B423A69C2
:1019E0009A4202DA7B6A5B423B617869FEF7A2FDAC
:1019F00004460D4660A3D3E90023D7E90C01FEF7A6
:101A000003FE02460B4620462946FEF745FC0246E9
:101A10000B46104619464FF000025C4BFEF71EFFC6
:101A200002460B4610461946FFF79EF803463B62F6
:101A300051A3D3E90023D7E90C01FEF7E5FD0246E7
:101A40000B4614461D467B69DA0F13445B1018469B
:101A5000FEF770FD02460B4620462946FEF71EFCA7
:101A600002460B4614461D463869FEF763FD44A343
:101A7000D3E90023FEF7C8FD02460B46204629465F
:101A8000FEF70CFC02460B46904683F000494FF0EF
:101A900000023E4B40464946FEF7E0FE02460B463A
:101AA00010461946FFF760F80346FB613869FEF7F8
:101AB00041FD33A3D3E90023FEF7A6FD02460B4602
:101AC00014461D467B69DA0F13445B101846FEF777
:101AD00031FD02460B4620462946FEF7DDFB024655
:101AE0000B4614461D4624A3D3E90023D7E90C0175
:101AF000FEF78AFD02460B4620462946FEF7CCFB40
:101B000002460B46104619464FF000021F4BFEF7E7
:101B1000A5FE02460B4610461946FFF725F8034678
:101B2000BB61BB690893FB6907933B6A0693D7E9DE
:101B30000C23CDE904233B6903937B690293D7E926
:101B40000A23CDE900237A6A1149124805F036F9D3
:101B5000142000F05DFDBA69F969386A00F020F8D8
:101B600000BF3837BD46BDE8B08300BFAFF300808B
:101B70008FC2F5285C8FE23F0000000000C0594092
:101B800085EB51B81E85EB3F0000184000003E4039
:101B900050A60008F40300200000000000C05440DC
:101BA00080B584B000AFF860B9607A60FB68DB0094
:101BB000184600F00FF8BB68DB00184600F03AF852
:101BC0007B68DB00184600F065F800BF1037BD46A3
:101BD00080BD000080B582B000AF78607B6883EA8A
:101BE000E372A2EBE372114B5A637B68002B0CDBB0
:101BF00001224FF400410E4801F056F800224FF444
:101C000080410B4801F050F80BE000224FF40041F6
:101C1000074801F049F801224FF48041044801F0DF
:101C200043F800BF0837BD4680BD00BF000001403B
:101C30000004024080B582B000AF78607B6883EA20
:101C4000E372A2EBE372114B9A637B68002B0CDB0F
:101C500001224FF400510E4801F026F800224FF403
:101C600080510B4801F020F80BE000224FF40051A6
:101C7000074801F019F801224FF48051044801F09F
:101C800013F800BF0837BD4680BD00BF000001400B
:101C90000004024080B582B000AF78607B6883EAC0
:101CA000E372A2EBE372104BDA637B68002B0BDB71
:101CB00001224FF480610D4800F0F6FF002204215C
:101CC0000A4800F0F1FF0AE000224FF48061074863
:101CD00000F0EAFF01220421044800F0E5FF00BF04
:101CE0000837BD4680BD00BF00000140000402402F
:101CF000B0B584B004AF164BB3F900301C46144B9A
:101D0000B3F902301D46124BB3F904301A46104B9A
:101D1000B3F9063019460E4BB3F9083018460C4B90
:101D2000B3F90A3003930290019100922B462246A8
:101D30000849094805F042F832220749074803F0EC
:101D40000BFA142000F064FC00BFBD46B0BD00BF1C
:101D50002804002084A60008F4030020AC0300201F
:101D600080B483B000AF78607B6840F27D429342DC
:101D700006DC7B68B3F57A7F02DD40F2334300E096
:101D80007B6818460C37BD465DF8047B704780B40D
:101D900000AF72B600BF00BFFDE7000080B483B0A3
:101DA00000AF00237B60104B5B6C0F4A43F4804311
:101DB00053640D4B5B6C03F480437B607B680023B2
:101DC0003B60094B1B6C084A43F080531364064B7D
:101DD0001B6C03F080533B603B6800BF0C37BD4673
:101DE0005DF8047B704700BF0038024080B58AB0C0
:101DF00000AF786007F1140300221A605A609A60FD
:101E0000DA601A617B681B68194A93422CD100235F
:101E10003B61184B1B6B174A43F002031363154BCE
:101E20001B6B03F002033B613B694FF440737B6122
:101E30001223BB610023FB6103233B6204237B620B
:101E400007F1140319460C4800F0AAFD0023FB60BB
:101E5000084B1B6C074A43F400131364054B1B6CBF
:101E600003F40013FB60FB6800BF2837BD4680BD4C
:101E700000540040003802400004024080B584B0A5
:101E800000AF78607B681B680E4A934215D100232F
:101E9000FB600D4B5B6C0C4A43F0010353640A4B2F
:101EA0005B6C03F00103FB60FB680022002118203B
:101EB00000F0ADFC182000F0C6FC00BF1037BD4696
:101EC00080BD00BF000001400038024080B58EB0E8
:101ED00000AF786007F1240300221A605A609A600C
:101EE000DA601A617B681B68B3F1804F34D100233C
:101EF0003B62554B1B6C544A43F001031364524B35
:101F00001B6C03F001033B623B6A0023FB614E4BF9
:101F10001B6B4D4A43F0010313634B4B1B6B03F0E8
:101F20000103FB61FB6922237B620223BB62002366
:101F3000FB6200233B6301237B6307F12403194603
:101F4000424800F02DFD002200211C2000F05FFC23
:101F50001C2000F078FC72E07B681B683C4A9342CE
:101F600034D10023BB61384B1B6C374A43F002036A
:101F70001364354B1B6C03F00203BB61BB69002388
:101F80007B61314B1B6B304A43F0010313632E4BD3
:101F90001B6B03F001037B617B69C0237B6202231F
:101FA000BB620023FB6200233B6302237B6307F1D8
:101FB00024031946254800F0F3FC002200211D20CF
:101FC00000F025FC1D2000F03EFC38E07B681B681B
:101FD000204A934233D100233B611B4B1B6C1A4AAE
:101FE00043F004031364184B1B6C03F004033B61C0
:101FF0003B690023FB60144B1B6B134A43F0020345
:102000001363114B1B6B03F00203FB60FB68C023DF
:102010007B620223BB620023FB6200233B6302233B
:102020007B6307F1240319460B4800F0B9FC00223A
:1020300000211E2000F0EBFB1E2000F004FC00BF7E
:102040003837BD4680BD00BF003802400000024066
:1020500000040040000800400004024080B58AB03F
:1020600000AF786007F1140300221A605A609A608A
:10207000DA601A617B681B681D4A934233D10023E2
:102080003B611C4B1B6C1B4A43F008031364194B48
:102090001B6C03F008033B613B690023FB60154B9D
:1020A0001B6B144A43F001031363124B1B6B03F0C9
:1020B0000103FB60FB6801237B610223BB610023FA
:1020C000FB6100233B6202237B6207F11403194684
:1020D000094800F065FC00220021322000F097FB47
:1020E000322000F0B0FB00BF2837BD4680BD00BFE6
:1020F000000C0040003802400000024080B588B06B
:1021000000AF786007F10C0300221A605A609A60F1
:10211000DA601A617B681B68124A93421ED1002361
:10212000BB60114B1B6B104A43F0010313630E4B52
:102130001B6B03F00103BB60BB684FF47063FB6073
:1021400002233B6100237B610023BB610123FB6110
:1021500007F10C031946054800F022FC00BF2037A8
:10216000BD4680BD00000140003802400000024032
:1021700080B58AB000AF786007F1140300221A60BE
:102180005A609A60DA601A617B681B682C4A934235
:1021900052D100233B612B4B5B6C2A4A43F0100366
:1021A0005364284B5B6C03F010033B613B690023D5
:1021B000FB60244B1B6B234A43F001031363214B49
:1021C0001B6B03F00103FB60FB680023BB601D4B2E
:1021D0001B6B1C4A43F0020313631A4B1B6B03F087
:1021E0000203BB60BB684FF400437B610223BB6109
:1021F0000023FB6103233B6207237B6207F1140387
:102200001946114800F0CCFB08237B610223BB6117
:102210000023FB6103233B6207237B6207F1140366
:1022200019460A4800F0BCFB00220021252000F0DE
:10223000EEFA252000F007FB00BF2837BD4680BD21
:10224000001001400038024000000240000402403B
:1022500080B400AF00BFFDE780B400AF00BFFDE772
:1022600080B400AF00BFFDE780B400AF00BFFDE762
:1022700080B400AF00BFFDE780B400AF00BFBD4633
:102280005DF8047B704780B400AF00BFBD465DF8C9
:10229000047B704780B400AF00BFBD465DF8047B8F
:1022A000704780B500AF00F093F900BF80BD00001B
:1022B00080B500AF024801F0C3FE00BF80BD00BF83
:1022C0004402002080B500AF024801F0B9FE00BF13
:1022D00080BD00BF8C02002080B500AF024801F035
:1022E000AFFE00BF80BD00BFD402002080B500AFAC
:1022F000024801F0A5FE00BF80BD00BF1C03002006
:1023000080B500AF024802F05DFF00BF80BD00BF96
:10231000AC03002080B500AF024801F091FE00BF81
:1023200080BD00BF6403002080B400AF01231846C5
:10233000BD465DF8047B704780B582B000AF786021
:10234000396004F0F1FD034616221A604FF0FF33A6
:1023500018460837BD4680BD80B582B000AF7860B2
:102360004FF0FF317868FFF7E7FF00BFFDE780B56A
:1023700086B000AFF860B9607A6000237B610AE044
:10238000AFF300800146BB685A1CBA60CAB21A702B
:102390007B6901337B617A697B689A42F0DB7B68F9
:1023A00018461837BD4680BD80B586B000AFF860CE
:1023B000B9607A6000237B6109E0BB685A1CBA608F
:1023C0001B781846AFF300807B6901337B617A6923
:1023D0007B689A42F1DB7B6818461837BD4680BDA2
:1023E00080B483B000AF78604FF0FF3318460C37ED
:1023F000BD465DF8047B704780B483B000AF786061
:1024000039603B684FF400525A60002318460C377D
:10241000BD465DF8047B704780B483B000AF786040
:10242000012318460C37BD465DF8047B704780B425
:1024300085B000AFF860B9607A60002318461437A1
:10244000BD465DF8047B704780B586B000AF78600C
:10245000144A154BD31A7B617B693B61134B1B6894
:10246000002B02D1114B124A1A60104B1A687B687C
:1024700013443A699A4207D204F056FD03460C22EF
:102480001A604FF0FF3309E0084B1B68FB60074BF5
:102490001A687B681344054A1360FB6818461837AE
:1024A000BD4680BD0000022000040000540400204E
:1024B000A805002080B400AF064BD3F88830054A49
:1024C00043F47003C2F8883000BFBD465DF8047B5A
:1024D000704700BF00ED00E0DFF834D0FFF7EAFFFF
:1024E0000C480D490D4A002302E0D458C45004336F
:1024F000C4188C42F9D30A4A0A4C002301E0136045
:102500000432A242FBD304F015FDFEF773FD7047C1
:102510000000022000000020D4010020F0AA0008E2
:10252000D4010020A8050020FEE7000080B500AF20
:102530000E4B1B680D4A43F4007313600B4B1B6872
:102540000A4A43F480631360084B1B68074A43F44C
:1025500080731360032000F04FF90F2000F008F89B
:10256000FFF71CFC0023184680BD00BF003C024062
:1025700080B582B000AF7860124B1A68124B1B789E
:1025800019464FF47A73B3FBF1F3B2FBF3F3184639
:1025900000F067F90346002B01D001230EE07B68B1
:1025A0000F2B0AD8002279684FF0FF3000F02FF986
:1025B000064A7B681360002300E0012318460837B1
:1025C000BD4680BD0000002008000020040000205F
:1025D00080B400AF064B1B781A46064B1B681344A9
:1025E000044A136000BFBD465DF8047B704700BF1E
:1025F000080000205804002080B400AF034B1B6883
:102600001846BD465DF8047B704700BF58040020A3
:1026100080B584B000AF7860FFF7EEFFB8607B68EC
:10262000FB60FB68B3F1FF3F05D00A4B1B781A46ED
:10263000FB681344FB6000BFFFF7DEFF0246BB6888
:10264000D31AFA689A42F7D800BF00BF1037BD46C8
:1026500080BD00BF0800002080B485B000AF786066
:102660007B6803F00703FB600C4BDB68BB60BA6858
:102670004FF6FF031340BB60FB681A02BB681343AD
:1026800043F0BF6343F40033BB60044ABB68D360CC
:1026900000BF1437BD465DF8047B704700ED00E0D5
:1026A00080B400AF044BDB681B0A03F00703184635
:1026B000BD465DF8047B704700ED00E080B483B058
:1026C00000AF0346FB7197F90730002B0BDBFB795A
:1026D00003F01F02074997F907305B09012000FA50
:1026E00002F241F8232000BF0C37BD465DF8047BA1
:1026F000704700BF00E100E080B483B000AF034644
:102700003960FB7197F90730002B0ADB3B68DAB2BE
:102710000C4997F907301201D2B20B4483F8002319
:102720000AE03B68DAB20849FB7903F00F03043B87
:102730001201D2B20B441A7600BF0C37BD465DF8C9
:10274000047B704700E100E000ED00E080B489B058
:1027500000AFF860B9607A60FB6803F00703FB61C3
:10276000FB69C3F10703042B28BF0423BB61FB698A
:102770000433062B02D9FB69033B00E000237B6195
:102780004FF0FF32BB6902FA03F3DA43BB681A4029
:102790007B699A404FF0FF317B6901FA03F3D9431B
:1027A0007B680B40134318462437BD465DF8047B15
:1027B0007047000080B582B000AF78607B68013B55
:1027C000B3F1807F01D301230FE00A4A7B68013B0C
:1027D00053600F214FF0FF30FFF78EFF054B0022B3
:1027E0009A60044B07221A60002318460837BD463A
:1027F00080BD00BF10E000E080B582B000AF78601F
:102800007868FFF729FF00BF0837BD4680BD80B557
:1028100086B000AF0346B9607A60FB7300237B612A
:10282000FFF73EFF78617A68B9687869FFF78EFF35
:10283000024697F90F3011461846FFF75DFF00BFBB
:102840001837BD4680BD80B582B000AF0346FB712E
:1028500097F907301846FFF731FF00BF0837BD462C
:1028600080BD80B582B000AF78607868FFF7A2FFC6
:10287000034618460837BD4680BD80B584B000AF1A
:1028800078607B689B6DFB60FFF7B6FEB8607B6885
:1028900093F83530DBB2022B08D07B6880225A6572
:1028A0007B68002283F83420012352E07B681B6898
:1028B0001A687B681B6822F016021A607B681B6826
:1028C0005A697B681B6822F080025A617B681B6C26
:1028D000002B03D17B689B6C002B07D07B681B68A7
:1028E0001A687B681B6822F008021A607B681B6804
:1028F0001A687B681B6822F001021A6013E0FFF778
:102900007BFE0246BB68D31A052B0CD97B682022BC
:102910005A657B68032283F835207B68002283F8A0
:102920003420032315E07B681B681B6803F0010358
:10293000002BE4D17B68DB6D3F229A40FB689A60F4
:102940007B68012283F835207B68002283F83420DD
:10295000002318461037BD4680BD80B483B000AF59
:1029600078607B6893F83530DBB2022B04D07B684B
:1029700080225A6501230CE07B68052283F835200C
:102980007B681B681A687B681B6822F001021A606A
:10299000002318460C37BD465DF8047B70470000E5
:1029A00080B489B000AF7860396000237B61002378
:1029B0003B610023BB610023FB6159E10122FB69FC
:1029C00002FA03F37B613B681B687A6913403B6141
:1029D0003A697B699A4240F048813B685B6803F042
:1029E0000303012B05D03B685B6803F00303022B54
:1029F00030D17B689B68BB61FB695B00032202FAF4
:102A000003F3DB43BA691340BB613B68DA68FB69D7
:102A10005B0002FA03F3BA691343BB617B68BA69CE
:102A20009A607B685B68BB610122FB6902FA03F371
:102A3000DB43BA691340BB613B685B681B0903F069
:102A40000102FB6902FA03F3BA691343BB617B68B5
:102A5000BA695A603B685B6803F00303032B17D025
:102A60007B68DB68BB61FB695B00032202FA03F34E
:102A7000DB43BA691340BB613B689A68FB695B0042
:102A800002FA03F3BA691343BB617B68BA69DA607F
:102A90003B685B6803F00303022B23D1FB69DA0870
:102AA0007B68083253F82230BB61FB6903F00703EF
:102AB0009B000F2202FA03F3DB43BA691340BB61A8
:102AC0003B681A69FB6903F007039B0002FA03F3F2
:102AD000BA691343BB61FB69DA087B680832B969DC
:102AE00043F822107B681B68BB61FB695B00032213
:102AF00002FA03F3DB43BA691340BB613B685B68CE
:102B000003F00302FB695B0002FA03F3BA691343A3
:102B1000BB617B68BA691A603B685B6803F4403349
:102B2000002B00F0A2800023FB60574B5B6C564AE1
:102B300043F480435364544B5B6C03F48043FB6069
:102B4000FB68524AFB699B08023352F82330BB6191
:102B5000FB6903F003039B000F2202FA03F3DB433C
:102B6000BA691340BB617B68494A934219D07B68BC
:102B7000484A934213D07B68474A93420DD07B6802
:102B8000464A934207D07B68454A934201D10423C9
:102B900008E0072306E0032304E0022302E0012308
:102BA00000E00023FA6902F0030292009340BA6940
:102BB0001343BB613549FB699B080233BA6941F88D
:102BC0002320384B9B68BB613B69DB43BA691340E8
:102BD000BB613B685B6803F48013002B03D0BA69C8
:102BE0003B691343BB612F4ABB6993602D4BDB6884
:102BF000BB613B69DB43BA691340BB613B685B68FF
:102C000003F40013002B03D0BA693B691343BB6183
:102C1000244ABB69D360234B5B68BB613B69DB43E0
:102C2000BA691340BB613B685B6803F40033002B57
:102C300003D0BA693B691343BB611A4ABB6953604D
:102C4000184B1B68BB613B69DB43BA691340BB612E
:102C50003B685B6803F48033002B03D0BA693B699F
:102C60001343BB610F4ABB691360FB690133FB610E
:102C7000FB690F2B7FF6A2AE00BF00BF2437BD4615
:102C80005DF8047B704700BF003802400038014007
:102C9000000002400004024000080240000C024014
:102CA00000100240003C014080B483B000AF786067
:102CB0000B467B8013467B707B78002B03D07A8891
:102CC0007B689A6103E07B881A047B689A6100BF85
:102CD0000C37BD465DF8047B7047000080B584B0BA
:102CE00000AF78607B68002B01D101232BE17B686A
:102CF00093F83D30DBB2002B06D17B68002283F8CD
:102D00003C207868FFF772F87B68242283F83D2026
:102D10007B681B681A687B681B6822F001021A60D6
:102D20007B681B681A687B681B6842F400421A6063
:102D30007B681B681A687B681B6822F400421A6073
:102D400000F040FDF8607B685B68814A934207D8D9
:102D5000FB68804A934294BF01230023DBB206E064
:102D6000FB687D4A934294BF01230023DBB2002B12
:102D700001D00123E7E0FB68784AA2FB03239B0C08
:102D8000BB607B681B685B6823F03F017B681B6846
:102D9000BA680A435A607B681B681B6A23F03F01CC
:102DA0007B685B686A4A934202D8BB68013309E0DA
:102DB000BB684FF4967202FB03F3694AA2FB03233C
:102DC0009B0901337A6812680B4313627B681B68A6
:102DD000DB6923F44F4222F0FF027B685B685C49A9
:102DE0008B4219D8FB68591E7B685B685B00B1FB9E
:102DF000F3F3591C40F6FC730B40002B0AD0FB6820
:102E0000591E7B685B685B00B1FBF3F30133C3F3CE
:102E10000B0351E004234FE07B689B68002B11D12A
:102E2000FB68581E7B6859680B465B000B44B0FB7F
:102E3000F3F30133C3F30B03002B0CBF0123002377
:102E4000DBB212E0FB68581E7B6859680B469B009A
:102E50000B4499000B44B0FBF3F30133C3F30B03B2
:102E6000002B0CBF01230023DBB2002B01D0012378
:102E700022E07B689B68002B0ED1FB68581E7B68A4
:102E800059680B465B000B44B0FBF3F30133C3F30B
:102E90000B0343F400430FE0FB68581E7B6859683E
:102EA0000B469B000B4499000B44B0FBF3F301333A
:102EB000C3F30B0343F44043796809681343CB61C0
:102EC0007B681B681B6823F0C0017B68DA697B683C
:102ED0001B6A1A437B681B680A431A607B681B687D
:102EE0009B6823F4034323F0FF037A6811697A682F
:102EF000D26811437A6812680B4393607B681B6841
:102F0000DB6823F0FF017B685A697B689B691A4381
:102F10007B681B680A43DA607B681B681A687B68F9
:102F20001B6842F001021A607B6800221A647B6809
:102F3000202283F83D207B6800221A637B680022F0
:102F400083F83E20002318461037BD4680BD00BFE1
:102F5000A08601007F841E00FF083D0083DE1B4326
:102F6000D34D621080B586B000AF78607B68002BCF
:102F700001D1012367E27B681B6803F00103002B8A
:102F800075D0884B9B6803F00C03042B0CD0854B49
:102F90009B6803F00C03082B12D1824B5B6803F48F
:102FA0008003B3F5800F0BD17E4B1B6803F4003315
:102FB000002B5BD07B685B68002B57D1012342E27A
:102FC0007B685B68B3F5803F06D1764B1B68754A1A
:102FD00043F4803313601DE07B685B68B3F5A02F7A
:102FE0000CD1704B1B686F4A43F4802313606D4B08
:102FF0001B686C4A43F4803313600BE0694B1B6819
:10300000684A23F480331360664B1B68654A23F4D7
:10301000802313607B685B68002B13D0FFF7ECFA0A
:10302000386108E0FFF7E8FA02463B69D31A642BDF
:1030300001D9032307E25B4B1B6803F40033002B29
:10304000F0D014E0FFF7D8FA386108E0FFF7D4FABF
:1030500002463B69D31A642B01D90323F3E1514B98
:103060001B6803F40033002BF0D100E000BF7B6845
:103070001B6803F00203002B63D04A4B9B6803F0EC
:103080000C03002B0BD0474B9B6803F00C03082B61
:103090001CD1444B5B6803F48003002B16D1414BD9
:1030A0001B6803F00203002B05D07B68DB68012B53
:1030B00001D00123C7E13B4B1B6823F0F8027B687A
:1030C0001B69DB00374913430B603AE07B68DB6820
:1030D000002B20D0344B01221A60FFF78DFA3861A3
:1030E00008E0FFF789FA02463B69D31A022B01D99F
:1030F0000323A8E12B4B1B6803F00203002BF0D045
:10310000284B1B6823F0F8027B681B69DB0025490C
:1031100013430B6015E0244B00221A60FFF76CFA92
:10312000386108E0FFF768FA02463B69D31A022BC0
:1031300001D9032387E11B4B1B6803F00203002B1B
:10314000F0D17B681B6803F00803002B36D07B6846
:103150005B69002B16D0154B01221A60FFF74CFA61
:10316000386108E0FFF748FA02463B69D31A022BA0
:1031700001D9032367E10B4B5B6F03F00203002BC4
:10318000F0D01BE0094B00221A60FFF735FA3861D6
:103190000EE0FFF731FA02463B69D31A022B07D93A
:1031A000032350E10038024000004742800E4742AE
:1031B000884B5B6F03F00203002BEAD17B681B682E
:1031C00003F00403002B00F097800023FB75814B74
:1031D0001B6C03F08053002B0FD10023BB607D4B91
:1031E0001B6C7C4A43F0805313647A4B1B6C03F0D6
:1031F0008053BB60BB680123FB75774B1B6803F4EE
:103200008073002B18D1744B1B68734A43F480738E
:103210001360FFF7F1F9386108E0FFF7EDF90246B6
:103220003B69D31A022B01D903230CE16A4B1B68BB
:1032300003F48073002BF0D07B689B68012B06D1D0
:10324000644B1B6F634A43F0010313671CE07B6808
:103250009B68052B0CD15F4B1B6F5E4A43F0040348
:1032600013675C4B1B6F5B4A43F0010313670BE072
:10327000584B1B6F574A23F001031367554B1B6FC5
:10328000544A23F0040313677B689B68002B15D016
:10329000FFF7B2F938610AE0FFF7AEF902463B6981
:1032A000D31A41F28832934201D90323CBE0494B30
:1032B0001B6F03F00203002BEED014E0FFF79CF924
:1032C00038610AE0FFF798F902463B69D31A41F2E8
:1032D0008832934201D90323B5E03E4B1B6F03F0C4
:1032E0000203002BEED1FB7D012B05D1394B1B6C6A
:1032F000384A23F0805313647B689B69002B00F0ED
:10330000A180344B9B6803F00C03082B5CD07B68D6
:103310009B69022B41D1314B00221A60FFF76CF9F7
:10332000386108E0FFF768F902463B69D31A022BBF
:1033300001D9032387E0274B1B6803F00073002BA0
:10334000F0D17B68DA697B681B6A1A437B685B6A29
:103350009B011A437B689B6A5B08013B1B041A4371
:103360007B68DB6A1B061B4913434B601B4B012226
:103370001A60FFF741F9386108E0FFF73DF90246AE
:103380003B69D31A022B01D903235CE0114B1B6864
:1033900003F00073002BF0D054E0104B00221A60B1
:1033A000FFF72AF9386108E0FFF726F902463B6982
:1033B000D31A022B01D9032345E0064B1B6803F007
:1033C0000073002BF0D13DE07B689B69012B07D196
:1033D000012338E00038024000700040600047429E
:1033E0001B4B5B68FB607B689B69012B28D0FB68EB
:1033F00003F480027B68DB699A4221D1FB6803F009
:103400003F027B681B6A9A421AD1FA6847F6C0737A
:1034100013407A68526A9201934211D1FB6803F417
:1034200040327B689B6A5B08013B1B049A4207D1D0
:10343000FB6803F070627B68DB6A1B069A4201D06E
:10344000012300E0002318461837BD4680BD00BFA9
:103450000038024080B584B000AF786039607B6886
:10346000002B01D10123CCE0684B1B6803F007035C
:103470003A689A420CD9654B3A68D2B21A70634BDB
:103480001B6803F007033A689A4201D00123B8E0B1
:103490007B681B6803F00203002B20D07B681B684D
:1034A00003F00403002B05D0594B9B68584A43F4A2
:1034B000E05393607B681B6803F00803002B05D082
:1034C000534B9B68524A43F460439360504B9B6854
:1034D00023F0F0027B689B684D4913438B607B6847
:1034E0001B6803F00103002B44D07B685B68012B51
:1034F00007D1474B1B6803F40033002B19D101237C
:103500007FE07B685B68022B03D07B685B68032BE2
:1035100007D13F4B1B6803F00073002B09D1012337
:103520006FE03B4B1B6803F00203002B01D101232A
:1035300067E0374B9B6823F003027B685B68344984
:1035400013438B60FFF758F8F8600AE0FFF754F870
:103550000246FB68D31A41F28832934201D9032311
:103560004FE02B4B9B6803F00C027B685B689B0071
:103570009A42EBD1254B1B6803F007033A689A4245
:103580000CD2224B3A68D2B21A70204B1B6803F05F
:1035900007033A689A4201D0012332E07B681B6836
:1035A00003F00403002B08D0194B9B6823F4E0526E
:1035B0007B68DB68164913438B607B681B6803F0EC
:1035C0000803002B09D0124B9B6823F460427B68F0
:1035D0001B69DB000E4913438B6000F021F80246A3
:1035E0000B4B9B681B0903F00F030A49CB5C22FAC3
:1035F00003F3094A1360094B1B681846FEF7B8FF2E
:10360000002318461037BD4680BD00BF003C024075
:10361000003802409CA600080000002004000020A2
:103620002DE9B04F90B000AF00237B630023FB6314
:1036300000233B630023BB63594B9B6803F00C03DF
:10364000082B0DD0082B00F2A180002B02D0042BF8
:1036500003D09BE0534BBB639BE0534BBB6398E0B1
:103660004F4B5B6803F03F037B634D4B5B6803F498
:103670008003002B28D04A4B5B689B0900223B62E9
:103680007A623B6AC3F308000021474B03FB01F257
:10369000002300FB03F31344434AA0FB0212FA6227
:1036A0000A46BA62FA6A1344FB627B6B0022BB6172
:1036B000FA61D7E90623D7E90A01FDF7EDFA0246D8
:1036C0000B461346FB6353E0354B5B689B090022B6
:1036D0003B617A613B69C3F3080A4FF0000B524625
:1036E0005B464FF000004FF00001590141EAD26102
:1036F000500102460B46B2EB0A0863EB0B094FF090
:1037000000024FF000034FEA891343EA98634FEA3F
:103710008812B2EB080463EB09054FF000024FF08A
:103720000003EB0043EA5473E20014461D4614EB19
:103730000A033B6045EB0B037B604FF000024FF048
:103740000003D7E9004529468B02214643EA9153FD
:1037500021468A02104619467B6B0022BB60FA6044
:10376000D7E90223FDF798FA02460B461346FB639E
:103770000B4B5B681B0C03F0030301335B003B63E3
:10378000FA6B3B6BB2FBF3F3BB6302E0054BBB632D
:1037900000BFBB6B18464037BD46BDE8B08F00BFC9
:1037A000003802400024F40040787D0180B400AF6E
:1037B000034B1B681846BD465DF8047B704700BF8D
:1037C0000000002080B500AFFFF7F0FF0246054B78
:1037D0009B689B0A03F007030349CB5C22FA03F3BF
:1037E000184680BD00380240ACA6000880B500AF86
:1037F000FFF7DCFF0246054B9B685B0B03F00703FA
:103800000349CB5C22FA03F3184680BD003802401E
:10381000ACA6000880B582B000AF78607B68002B52
:1038200001D1012341E07B6893F83D30DBB2002BEE
:1038300006D17B68002283F83C207868FEF70EFCF6
:103840007B68022283F83D207B681A687B6804331A
:103850001946104600F0F0FE7B68012283F84620EE
:103860007B68012283F83E207B68012283F83F2099
:103870007B68012283F840207B68012283F8412085
:103880007B68012283F842207B68012283F8432071
:103890007B68012283F844207B68012283F845205D
:1038A0007B68012283F83D20002318460837BD4677
:1038B00080BD80B582B000AF78607B68002B01D1FD
:1038C000012341E07B6893F83D30DBB2002B06D149
:1038D0007B68002283F83C207868FEF7CFFA7B688B
:1038E000022283F83D207B681A687B6804331946FE
:1038F000104600F0A1FE7B68012283F846207B6819
:10390000012283F83E207B68012283F83F207B68F8
:10391000012283F840207B68012283F841207B68E4
:10392000012283F842207B68012283F843207B68D0
:10393000012283F844207B68012283F845207B68BC
:10394000012283F83D20002318460837BD4680BD7C
:1039500080B584B000AF786039603B68002B09D136
:103960007B6893F83E30DBB2012B14BF01230023A8
:10397000DBB222E03B68042B09D17B6893F83F302F
:10398000DBB2012B14BF01230023DBB215E03B683F
:10399000082B09D17B6893F84030DBB2012B14BFB0
:1039A00001230023DBB208E07B6893F84130DBB2EF
:1039B000012B14BF01230023DBB2002B01D0012314
:1039C00068E03B68002B04D17B68022283F83E202C
:1039D00013E03B68042B04D17B68022283F83F206C
:1039E0000BE03B68082B04D17B68022283F840205F
:1039F00003E07B68022283F841207B681B68012278
:103A00003968184601F05FFA7B681B68234A9342C5
:103A100007D17B681B685A6C7B681B6842F40042C4
:103A20005A647B681B681D4A934218D07B681B68E8
:103A3000B3F1804F13D07B681B68194A93420ED0B4
:103A40007B681B68174A934209D07B681B68164A3B
:103A5000934204D07B681B68144A934211D17B685F
:103A60001B689B6803F00703FB60FB68062B10D004
:103A70007B681B681A687B681B6842F001021A6049
:103A800007E07B681B681A687B681B6842F00102CC
:103A90001A60002318461037BD4680BD0000014063
:103AA0000004004000080040000C004000400140BD
:103AB00080B582B000AF78607B68002B01D1012314
:103AC00041E07B6893F83D30DBB2002B06D17B6888
:103AD000002283F83C20786800F039F87B680222E5
:103AE00083F83D207B681A687B68043319461046CA
:103AF00000F0A2FD7B68012283F846207B6801224A
:103B000083F83E207B68012283F83F207B680122F6
:103B100083F840207B68012283F841207B680122E2
:103B200083F842207B68012283F843207B680122CE
:103B300083F844207B68012283F845207B680122BA
:103B400083F83D20002318460837BD4680BD80B469
:103B500083B000AF786000BF0C37BD465DF8047BD2
:103B60007047000080B584B000AF786039600023F2
:103B7000FB733B68002B04D17B6893F83E30DBB2CB
:103B800013E03B68042B04D17B6893F83F30DBB231
:103B90000BE03B68082B04D17B6893F84030DBB224
:103BA00003E07B6893F84130DBB2BB733B68002BCA
:103BB00004D17B6893F84230DBB213E03B68042BFE
:103BC00004D17B6893F84330DBB20BE03B68082BF1
:103BD00004D17B6893F84430DBB203E07B6893F850
:103BE0004530DBB27B73BB7B012B02D17B7B012B8E
:103BF00001D00123C2E03B68002B04D17B68022284
:103C000083F83E2013E03B68042B04D17B6802223A
:103C100083F83F200BE03B68082B04D17B6802222D
:103C200083F8402003E07B68022283F841203B6850
:103C3000002B04D17B68022283F8422013E03B680A
:103C4000042B04D17B68022283F843200BE03B68FD
:103C5000082B04D17B68022283F8442003E07B68B0
:103C6000022283F845203B680C2B41D801A252F870
:103C700023F000BFA93C0008F13C0008F13C00081B
:103C8000F13C0008BB3C0008F13C0008F13C000896
:103C9000F13C0008CD3C0008F13C0008F13C000874
:103CA000F13C0008DF3C00087B681B68DA687B6831
:103CB0001B6842F00202DA601DE07B681B68DA686C
:103CC0007B681B6842F00402DA6014E07B681B68C2
:103CD000DA687B681B6842F00802DA600BE07B68F8
:103CE0001B68DA687B681B6842F01002DA6002E049
:103CF0000123FB7300BFFB7B002B3ED17B681B685D
:103D000001223968184601F0DEF87B681B681D4AFD
:103D1000934218D07B681B68B3F1804F13D07B6847
:103D20001B68194A93420ED07B681B68174A93425E
:103D300009D07B681B68164A934204D07B681B68D5
:103D4000144A934211D17B681B689B6803F00703F8
:103D5000BB60BB68062B10D07B681B681A687B6849
:103D60001B6842F001021A6007E07B681B681A6852
:103D70007B681B6842F001021A60FB7B1846103713
:103D8000BD4680BD00000140000400400008004026
:103D9000000C00400040014080B586B000AF786064
:103DA00039607B68002B01D1012397E07B6893F891
:103DB0003D30DBB2002B06D17B68002283F83C202B
:103DC0007868FEF783F87B68022283F83D207B68E1
:103DD0001B689B687A68126823F4804323F007030A
:103DE00093607B681A687B6804331946104600F0BC
:103DF00023FC7B681B689B687B617B681B689B69F5
:103E00003B617B681B681B6AFB603B681B687A69C7
:103E100013437B613B6923F4407323F003033B614D
:103E20003B689A683B689B691B0213433A691343DA
:103E30003B613B6923F4406323F00C033B613B6926
:103E400023F4704323F0F0033B613B68DA683B687E
:103E5000DB691B0213433A6913433B613B681B69EF
:103E60001A013B681B6A1B0313433A6913433B6106
:103E7000FB6823F02203FB60FB6823F08803FB60F0
:103E80003B685A683B685B691B011343FA6813433C
:103E9000FB607B681B687A699A607B681B683A697B
:103EA0009A617B681B68FA681A627B68012283F852
:103EB00046207B68012283F83E207B68012283F83C
:103EC0003F207B68012283F842207B68012283F82F
:103ED00043207B68012283F83D20002318461837D1
:103EE000BD4680BD80B584B000AF786039607B6826
:103EF00093F83E30FB737B6893F83F30BB737B686D
:103F000093F842307B737B6893F843303B733B6894
:103F1000002B10D1FB7B012B02D17B7B012B01D02D
:103F2000012389E07B68022283F83E207B6802221D
:103F300083F8422031E03B68042B10D1BB7B012B7E
:103F400002D13B7B012B01D0012375E07B6802226B
:103F500083F83F207B68022283F843201DE0FB7B2F
:103F6000012B08D1BB7B012B05D17B7B012B02D11F
:103F70003B7B012B01D001235EE07B68022283F8AA
:103F80003E207B68022283F83F207B68022283F870
:103F900042207B68022283F843203B68002B03D039
:103FA0003B68042B10D01FE07B681B6801220021B6
:103FB000184600F088FF7B681B68DA687B681B681E
:103FC00042F00202DA602EE07B681B6801220421C5
:103FD000184600F078FF7B681B68DA687B681B680E
:103FE00042F00402DA601EE07B681B6801220021B7
:103FF000184600F068FF7B681B6801220421184600
:1040000000F061FF7B681B68DA687B681B6842F020
:104010000202DA607B681B68DA687B681B6842F022
:104020000402DA6000BF7B681B681A687B681B6843
:1040300042F001021A60002318461037BD4680BDC9
:1040400080B584B000AF78607B681B68DB68FB607C
:104050007B681B681B69BB60BB6803F00203002B15
:1040600020D0FB6803F00203002B1BD07B681B6889
:104070006FF002021A617B6801221A777B681B6865
:104080009B6903F00303002B03D07868FDF784FBE2
:1040900005E0786800F0B2FA786800F0B9FA7B6859
:1040A00000221A77BB6803F00403002B20D0FB68C2
:1040B00003F00403002B1BD07B681B686FF0040225
:1040C0001A617B6802221A777B681B689B6903F47C
:1040D0004073002B03D07868FDF75EFB05E078683D
:1040E00000F08CFA786800F093FA7B6800221A7767
:1040F000BB6803F00803002B20D0FB6803F0080323
:10410000002B1BD07B681B686FF008021A617B686C
:1041100004221A777B681B68DB6903F00303002B1A
:1041200003D07868FDF738FB05E0786800F066FAA0
:10413000786800F06DFA7B6800221A77BB6803F09C
:104140001003002B20D0FB6803F01003002B1BD0C2
:104150007B681B686FF010021A617B6808221A776F
:104160007B681B68DB6903F44073002B03D078681D
:10417000FDF712FB05E0786800F040FA786800F07F
:1041800047FA7B6800221A77BB6803F00103002B13
:104190000CD0FB6803F00103002B07D07B681B6881
:1041A0006FF001021A61786800F01EFABB6803F034
:1041B0008003002B0CD0FB6803F08003002B07D09A
:1041C0007B681B686FF080021A61786800F06AFFF4
:1041D000BB6803F04003002B0CD0FB6803F04003E6
:1041E000002B07D07B681B686FF040021A6178686B
:1041F00000F018FABB6803F02003002B0CD0FB681A
:1042000003F02003002B07D07B681B686FF02002AF
:104210001A61786800F03CFF00BF1037BD4680BDD2
:1042200080B586B000AFF860B9607A600023FB7596
:10423000FB6893F83C30012B01D1022388E0FB6836
:10424000012283F83C207B68002B1BD1FB68186897
:10425000BB681968BB685A68BB68DB6800F096FCED
:10426000FB681B689A69FB681B6822F00C029A6164
:10427000FB681B689969BB689A68FB681B680A43FE
:104280009A6160E07B68042B1CD1FB681868BB68EE
:104290001968BB685A68BB68DB6800F00EFDFB68F4
:1042A0001B689A69FB681B6822F440629A61FB688C
:1042B0001B689969BB689B681A02FB681B680A4304
:1042C0009A6140E07B68082B1BD1FB681868BB68CB
:1042D0001968BB685A68BB68DB6800F05BFDFB6867
:1042E0001B68DA69FB681B6822F00C02DA61FB6864
:1042F0001B68D969BB689A68FB681B680A43DA6166
:1043000021E07B680C2B1CD1FB681868BB6819681E
:10431000BB685A68BB68DB6800F078FDFB681B6807
:10432000DA69FB681B6822F44062DA61FB681B688B
:10433000D969BB689B681A02FB681B680A43DA618B
:1043400001E00123FB75FB68002283F83C20FB7D24
:1043500018461837BD4680BD80B586B000AFF860FE
:10436000B9607A600023FB75FB6893F83C30012B41
:1043700001D10223AEE0FB68012283F83C207B6878
:104380000C2B00F29F8001A252F823F0C1430008D9
:10439000C5440008C5440008C5440008014400089D
:1043A000C5440008C5440008C5440008434400084B
:1043B000C5440008C5440008C544000883440008FB
:1043C000FB681B68B968184600F0C2F9FB681B68F7
:1043D0009A69FB681B6842F008029A61FB681B68D7
:1043E0009A69FB681B6822F004029A61FB681B68EB
:1043F0009969BB681A69FB681B680A439A6164E0A3
:10440000FB681B68B968184600F008FAFB681B686F
:104410009A69FB681B6842F400629A61FB681B683A
:104420009A69FB681B6822F480629A61FB681B68CA
:104430009969BB681B691A02FB681B680A439A6189
:1044400043E0FB681B68B968184600F053FAFB6844
:104450001B68DA69FB681B6842F00802DA61FB68D6
:104460001B68DA69FB681B6822F00402DA61FB68EA
:104470001B68D969BB681A69FB681B680A43DA6163
:1044800023E0FB681B68B968184600F09DFAFB68DA
:104490001B68DA69FB681B6842F40062DA61FB683A
:1044A0001B68DA69FB681B6822F48062DA61FB68CA
:1044B0001B68D969BB681B691A02FB681B680A4341
:1044C000DA6102E00123FB7500BFFB68002283F87C
:1044D0003C20FB7D18461837BD4680BD80B582B0B4
:1044E00000AF786039607B6893F83C30012B01D1D4
:1044F000022331E07B68012283F83C207B680222A2
:1045000083F83D203968786800F0AEFA0346002B46
:1045100009D07B68012283F83D207B68002283F864
:104520003C20012318E07B681B68DA687B681B6805
:1045300022F04002DA607B681B68DA687B681B68DF
:1045400022F48042DA607B68012283F83D207B6898
:10455000002283F83C20002318460837BD4680BD62
:1045600080B485B000AF786039600023FB603B68A1
:104570000C2B31D801A252F823F000BFB14500083E
:10458000D9450008D9450008D9450008BB450008B1
:10459000D9450008D9450008D9450008C545000897
:1045A000D9450008D9450008D9450008CF4500087D
:1045B0007B681B685B6BFB600FE07B681B689B6B19
:1045C000FB600AE07B681B68DB6BFB6005E07B68D7
:1045D0001B681B6CFB6000E000BFFB6818461437CB
:1045E000BD465DF8047B704780B483B000AF78604F
:1045F00000BF0C37BD465DF8047B704780B483B0C4
:1046000000AF786000BF0C37BD465DF8047B704793
:1046100080B483B000AF786000BF0C37BD465DF852
:10462000047B704780B483B000AF786000BF0C3764
:10463000BD465DF8047B704780B485B000AF7860FC
:1046400039607B681B68FB607B683A4A93420FD0F5
:104650007B68B3F1804F0BD07B68374A934207D019
:104660007B68364A934203D07B68354A934208D12F
:10467000FB6823F07003FB603B685B68FA681343D8
:10468000FB607B682B4A93421BD07B68B3F1804F61
:1046900017D07B68284A934213D07B68274A9342FD
:1046A0000FD07B68264A93420BD07B68254A934201
:1046B00007D07B68244A934203D07B68234A934205
:1046C00008D1FB6823F44073FB603B68DB68FA6841
:1046D0001343FB60FB6823F080023B685B69134374
:1046E000FB607B68FA681A603B689A687B68DA62EC
:1046F0003B681A687B689A627B680E4A934203D1D2
:104700003B681A697B681A637B6801225A617B687F
:104710001B6903F00103012B05D17B681B6923F0A2
:1047200001027B681A6100BF1437BD465DF8047B47
:10473000704700BF00000140000400400008004036
:10474000000C00400040014000440140004801408E
:1047500080B487B000AF786039607B681B6A7B618A
:104760007B681B6A23F001027B681A627B685B68C6
:104770003B617B689B69FB60FB6823F07003FB6017
:10478000FB6823F00303FB603B681B68FA68134374
:10479000FB607B6923F002037B613B689B687A695D
:1047A00013437B617B681C4A93420CD17B6923F0E5
:1047B00008037B613B68DB687A6913437B617B6933
:1047C00023F004037B617B68134A934211D13B6958
:1047D00023F480733B613B6923F400733B613B68C6
:1047E0005B693A6913433B613B689B693A691343D0
:1047F0003B617B683A695A607B68FA689A613B68FA
:104800005A687B685A637B687A691A6200BF1C37F2
:10481000BD465DF8047B70470000014080B487B05E
:1048200000AF786039607B681B6A7B617B681B6ABC
:1048300023F010027B681A627B685B683B617B68CF
:104840009B69FB60FB6823F4E043FB60FB6823F497
:104850004073FB603B681B681B02FA681343FB60F4
:104860007B6923F020037B613B689B681B017A69AD
:1048700013437B617B681E4A93420DD17B6923F011
:1048800080037B613B68DB681B017A6913437B61B2
:104890007B6923F040037B617B68154A934213D107
:1048A0003B6923F480633B613B6923F400633B6114
:1048B0003B685B699B003A6913433B613B689B69BA
:1048C0009B003A6913433B617B683A695A607B6895
:1048D000FA689A613B685A687B689A637B687A6970
:1048E0001A6200BF1C37BD465DF8047B704700BFED
:1048F0000000014080B487B000AF786039607B6809
:104900001B6A7B617B681B6A23F480727B681A6276
:104910007B685B683B617B68DB69FB60FB6823F05D
:104920007003FB60FB6823F00303FB603B681B68BC
:10493000FA681343FB607B6923F400737B613B6877
:104940009B681B027A6913437B617B681D4A934213
:104950000DD17B6923F400637B613B68DB681B023C
:104960007A6913437B617B6923F480637B617B6895
:10497000144A934213D13B6923F480533B613B6952
:1049800023F400533B613B685B691B013A691343A5
:104990003B613B689B691B013A6913433B617B6840
:1049A0003A695A607B68FA68DA613B685A687B68E2
:1049B000DA637B687A691A6200BF1C37BD465DF80E
:1049C000047B70470000014080B487B000AF78607E
:1049D00039607B681B6A3B617B681B6A23F48052E9
:1049E0007B681A627B685B687B617B68DB69FB6064
:1049F000FB6823F4E043FB60FB6823F44073FB6037
:104A00003B681B681B02FA681343FB603B6923F495
:104A100000533B613B689B681B033A6913433B614E
:104A20007B68104A934209D17B6923F480437B6100
:104A30003B685B699B017A6913437B617B687A6998
:104A40005A607B68FA68DA613B685A687B681A6466
:104A50007B683A691A6200BF1C37BD465DF8047B6B
:104A6000704700BF0000014080B586B000AF78609D
:104A700039600023FB757B681B689B683B613B6961
:104A800023F070033B613B685B683A6913433B6109
:104A90003B6923F007033B613B681B683A6913439A
:104AA0003B617B681B683A699A603B685B68702B66
:104AB0001AD0702B60D8602B54D0602B5CD8502B50
:104AC00046D0502B58D8402B19D0402B54D8302BDF
:104AD00055D0302B50D8202B51D0202B4CD8002B28
:104AE0004DD0102B4BD047E07B6818683B68D968E5
:104AF0003B689A683B681B6900F0C5F940E03B6879
:104B00001B68052B01D101233BE07B681B681B6AF6
:104B1000FB607B681B681A6A7B681B6822F00102D5
:104B20001A627B681B689B69BB60BB6823F0F0035B
:104B3000BB603B681B691B01BA681343BB607B68A1
:104B40001B68BA689A617B681B68FA681A6217E08A
:104B50007B6818683B6899683B681B691A4600F0D7
:104B60007DF80DE07B6818683B6899683B681B69B5
:104B70001A4600F0DFF803E00123FB7500E000BFF8
:104B8000FB7D18461837BD4680BD000080B487B055
:104B900000AFF860B9607A603B60FB681B6A3B61FC
:104BA000FB681B6A23F00102FB681A62FB689B69C1
:104BB0007B61FB68244A934213D0FB68B3F1804FBA
:104BC0000FD0FB68214A93420BD0FB68204A9342E6
:104BD00007D0FB681F4A934203D0FB681E4A9342EA
:104BE00001D1012300E00023002B08D07B6923F0D2
:104BF00003037B617A697B6813437B6103E07B6914
:104C000043F001037B617B6923F0F0037B613B6828
:104C10001B01DBB27A6913437B613B6923F00A0312
:104C20003B61BB6803F00A033A6913433B61FB68CD
:104C30007A699A61FB683A691A6200BF1C37BD46FF
:104C40005DF8047B704700BF000001400004004095
:104C500000080040000C00400040014080B487B0D4
:104C600000AFF860B9607A60FB681B6A7B61FB6823
:104C70001B6A23F00102FB681A62FB689B693B61B7
:104C80003B6923F0F0033B617B681B013A691343E6
:104C90003B617B6923F00A037B617A69BB6813433C
:104CA0007B61FB683A699A61FB687A691A6200BFA6
:104CB0001C37BD465DF8047B704780B487B000AFF9
:104CC000F860B9607A603B60FB681B6A7B61FB68D7
:104CD0001B6A23F01002FB681A62FB689B693B6148
:104CE0003B6923F440733B617B681B023A691343C1
:104CF0003B613B6923F470433B613B681B039BB200
:104D00003A6913433B617B6923F0A0037B61BB6875
:104D10001B0103F0A0037A6913437B61FB683A69C6
:104D20009A61FB687A691A6200BF1C37BD465DF85C
:104D3000047B704780B487B000AFF860B9607A60D8
:104D4000FB681B6A7B61FB681B6A23F01002FB682F
:104D50001A62FB689B693B613B6923F470433B61CA
:104D60007B681B033A6913433B617B6923F0A00313
:104D70007B61BB681B017A6913437B61FB683A69FD
:104D80009A61FB687A691A6200BF1C37BD465DF8FC
:104D9000047B704780B487B000AFF860B9607A6078
:104DA0003B60FB681B6A7B61FB681B6A23F48072B3
:104DB000FB681A62FB68DB693B613B6923F0030314
:104DC0003B613A697B6813433B613B6923F0F00325
:104DD0003B613B681B01DBB23A6913433B617B6972
:104DE00023F420637B61BB681B0203F420637A69B0
:104DF00013437B61FB683A69DA61FB687A691A627E
:104E000000BF1C37BD465DF8047B704780B487B097
:104E100000AFF860B9607A603B60FB681B6A7B6139
:104E2000FB681B6A23F48052FB681A62FB68DB692B
:104E30003B613B6923F440733B617B681B023A6929
:104E400013433B613B6923F470433B613B681B03A5
:104E50009BB23A6913433B617B6923F420437B6136
:104E6000BB681B0303F420437A6913437B61FB682F
:104E70003A69DA61FB687A691A6200BF1C37BD467D
:104E80005DF8047B704780B487B000AFF860B9600C
:104E90007A603B60FB689B687B617B6923F47F439E
:104EA0007B613B681A027B681A43BB6813437A69CB
:104EB00013437B61FB687A699A6000BF1C37BD466B
:104EC0005DF8047B704780B487B000AFF860B960CC
:104ED0007A60BB6803F01F03012202FA03F37B61CF
:104EE000FB681A6A7B69DB431A40FB681A62FB683D
:104EF0001A6ABB6803F01F03796801FA03F31A43C7
:104F0000FB681A6200BF1C37BD465DF8047B704722
:104F100080B485B000AF786039607B6893F83C302E
:104F2000012B01D1022350E07B68012283F83C2051
:104F30007B68022283F83D207B681B685B68FB600E
:104F40007B681B689B68BB60FB6823F07003FB6099
:104F50003B681B68FA681343FB607B681B68FA6850
:104F60005A607B681B681C4A934218D07B681B6898
:104F7000B3F1804F13D07B681B68184A93420ED060
:104F80007B681B68164A934209D07B681B68154AE8
:104F9000934204D07B681B68134A93420CD1BB68D0
:104FA00023F08003BB603B685B68BA681343BB6057
:104FB0007B681B68BA689A607B68012283F83D2091
:104FC0007B68002283F83C20002318461437BD4636
:104FD0005DF8047B704700BF000001400004004002
:104FE00000080040000C00400040014080B485B043
:104FF00000AF786039600023FB607B6893F83C3039
:10500000012B01D102233DE07B68012283F83C2083
:10501000FB6823F0FF023B68DB681343FB60FB681F
:1050200023F440723B689B681343FB60FB6823F4E6
:1050300080623B685B681343FB60FB6823F400629B
:105040003B681B681343FB60FB6823F480523B689A
:105050001B691343FB60FB6823F400523B685B69E8
:105060001343FB60FB6823F480423B68DB69134316
:10507000FB607B681B68FA685A647B68002283F8CF
:105080003C20002318461437BD465DF8047B70476A
:1050900080B483B000AF786000BF0C37BD465DF8C8
:1050A000047B704780B483B000AF786000BF0C37DA
:1050B000BD465DF8047B704780B582B000AF786074
:1050C0007B68002B01D1012342E07B6893F84130DB
:1050D000DBB2002B06D17B68002283F84020786881
:1050E000FDF746F87B68242283F841207B681B6823
:1050F000DA687B681B6822F40052DA60786800F096
:10510000BBFC7B681B681A697B681B6822F49042B1
:105110001A617B681B685A697B681B6822F02A0247
:105120005A617B681B68DA687B681B6842F400522E
:10513000DA607B6800225A647B68202283F8412071
:105140007B68202283F842207B6800225A63002378
:1051500018460837BD4680BD80B485B000AFF86002
:10516000B9601346FB80FB6893F84130DBB2202B1B
:1051700021D1BB68002B02D0FB88002B01D1012379
:105180001AE0FB68BA681A62FB68FA889A84FB68BE
:10519000FA88DA84FB6800225A64FB68212283F8CB
:1051A0004120FB681B68DA68FB681B6842F08002DC
:1051B000DA60002300E0022318461437BD465DF88C
:1051C000047B704780B5BAB000AF78607B681B681D
:1051D0001B68C7F8E4307B681B68DB68C7F8E03001
:1051E0007B681B685B69C7F8DC300023C7F8D830E0
:1051F0000023C7F8D430D7F8E43003F00F03C7F822
:10520000D830D7F8D830002B0FD1D7F8E43003F0DE
:105210002003002B09D0D7F8E03003F02003002B47
:1052200003D0786800F069FB5BE2D7F8D830002B38
:1052300000F0DE80D7F8DC3003F00103002B06D14C
:10524000D7F8E03003F49073002B00F0D180D7F84A
:10525000E43003F00103002B0BD0D7F8E03003F467
:105260008073002B05D07B685B6C43F001027B6888
:105270005A64D7F8E43003F00403002B0BD0D7F8BE
:10528000DC3003F00103002B05D07B685B6C43F03E
:1052900002027B685A64D7F8E43003F00203002B63
:1052A0000BD0D7F8DC3003F00103002B05D07B686E
:1052B0005B6C43F004027B685A64D7F8E43003F077
:1052C0000803002B11D0D7F8E03003F02003002BA7
:1052D00005D1D7F8DC3003F00103002B05D07B6843
:1052E0005B6C43F008027B685A647B685B6C002B44
:1052F00000F0F281D7F8E43003F02003002B08D04F
:10530000D7F8E03003F02003002B02D0786800F0DB
:10531000F4FA7B681B685B6903F04003402B0CBF09
:1053200001230023DBB2C7F8D4307B685B6C03F049
:105330000803002B03D1D7F8D430002B4FD0786866
:1053400000F0FCF97B681B685B6903F04003402BAD
:1053500041D17B681B681433C7F89C30D7F89C3068
:1053600053E8003FC7F89830D7F8983023F040034F
:10537000C7F8D0307B681B681433D7F8D020C7F843
:10538000A820C7F8A430D7F8A410D7F8A82041E87F
:105390000023C7F8A030D7F8A030002BD9D17B6804
:1053A000DB6B002B13D07B68DB6B7E4A1A657B6856
:1053B000DB6B1846FDF7D1FA0346002B16D07B684D
:1053C000DB6B1B6D7A68D26B104698470EE07868ED
:1053D00000F09EF90AE0786800F09AF906E0786833
:1053E00000F096F97B6800225A6475E100BF73E112
:1053F0007B681B6B012B40F04F81D7F8E43003F042
:105400001003002B00F04881D7F8E03003F01003C0
:10541000002B00F041810023BB607B681B681B6888
:10542000BB607B681B685B68BB60BB687B681B6894
:105430005B6903F04003402B40F0B6807B68DB6B78
:105440001B685B68A7F8BE30B7F8BE30002B00F0D1
:1054500045817B689B8DB7F8BE209A4280F03E81E3
:105460007B68B7F8BE20DA857B68DB6BDB69B3F558
:10547000807F00F088807B681B680C33C7F8883019
:10548000D7F8883053E8003FC7F88430D7F8843025
:1054900023F48073C7F8B8307B681B680C33D7F8E7
:1054A000B820C7F89420C7F89030D7F89010D7F8F4
:1054B000942041E80023C7F88C30D7F88C30002BBB
:1054C000D9D17B681B6814337B677B6F53E8003F3F
:1054D0003B673B6F23F00103C7F8B4307B681B6860
:1054E0001433D7F8B420C7F88020FB67F96FD7F8DA
:1054F000802041E80023BB67BB6F002BE1D17B68B4
:105500001B6814333B663B6E53E8003FFB65FB6D45
:1055100023F04003C7F8B0307B681B681433D7F81A
:10552000B020FA66BB66B96EFA6E41E800237B666E
:105530007B6E002BE3D17B68202283F842207B68BE
:1055400000221A637B681B680C33FB64FB6C53E816
:10555000003FBB64BB6C23F01003C7F8AC307B6822
:105560001B680C33D7F8AC20BA657B65796DBA6DD2
:1055700041E800233B653B6D002BE3D17B68DB6B8F
:105580001846FDF77AF97B6802225A637B689A8D88
:105590007B68DB8D9BB2D31A9BB21946786800F00A
:1055A000C1F89BE0035800087B689A8D7B68DB8D0F
:1055B0009BB2D31AA7F8CE307B68DB8D9BB2002B51
:1055C00000F08E80B7F8CE30002B00F089807B6829
:1055D0001B680C33BB63BB6B53E8003F7B637B6B87
:1055E00023F49073C7F8C8307B681B680C33D7F876
:1055F000C8207A643B64396C7A6C41E80023FB6311
:10560000FB6B002BE3D17B681B6814337B627B6AE6
:1056100053E8003F3B623B6A23F00103C7F8C43004
:105620007B681B681433D7F8C4203A63FB62F96ABD
:105630003A6B41E80023BB62BB6A002BE3D17B6875
:10564000202283F842207B6800221A637B681B6853
:105650000C333B613B6953E8003FFB60FB6823F080
:105660001003C7F8C0307B681B680C33D7F8C02024
:10567000FA61BB61B969FA6941E800237B617B6922
:10568000002BE3D17B6802225A63B7F8CE3019466B
:10569000786800F047F823E0D7F8E43003F080039F
:1056A000002B09D0D7F8E03003F08003002B03D0A3
:1056B000786800F0BAF814E0D7F8E43003F040035B
:1056C000002B0ED0D7F8E03003F04003002B08D0B9
:1056D000786800F0FAF804E000BF02E000BF00E0E4
:1056E00000BFE837BD4680BD80B483B000AF7860AE
:1056F00000BF0C37BD465DF8047B704780B483B0B3
:1057000000AF786000BF0C37BD465DF8047B704782
:1057100080B483B000AF786000BF0C37BD465DF841
:10572000047B704780B483B000AF78600B467B8009
:1057300000BF0C37BD465DF8047B704780B495B060
:1057400000AF78607B681B680C337B637B6B53E82E
:10575000003F3B633B6B23F49073FB647B681B68E7
:105760000C33FA6C3A64FB63F96B3A6C41E8002342
:10577000BB63BB6B002BE5D17B681B6814333B62BA
:105780003B6A53E8003FFB61FB6923F00103BB6404
:105790007B681B681433BA6CFA62BB62B96AFA6A36
:1057A00041E800237B627B6A002BE5D17B681B6BA1
:1057B000012B19D17B681B680C33FB60FB6853E835
:1057C000003FBB60BB6823F010037B647B681B68F1
:1057D0000C337A6CBA617B617969BA6941E800235C
:1057E0003B613B69002BE5D17B68202283F8422096
:1057F0007B6800221A6300BF5437BD465DF8047B06
:10580000704780B584B000AF78607B689B6BFB60AD
:10581000FB680022DA85FB680022DA84F868FFF76B
:1058200077FF00BF1037BD4680BD80B485B000AFA4
:1058300078607B6893F84130DBB2212B3ED17B68E6
:105840009B68B3F5805F14D17B681B69002B10D176
:105850007B681B6AFB60FB681B881A467B681B68B9
:10586000C2F308025A607B681B6A9A1C7B681A6242
:1058700008E07B681B6A591C7A6811621A787B6899
:105880001B685A607B68DB8C9BB2013B9BB27A68D9
:105890001946D184002B0FD17B681B68DA687B68BE
:1058A0001B6822F08002DA607B681B68DA687B681C
:1058B0001B6842F04002DA60002300E00223184631
:1058C0001437BD465DF8047B704780B582B000AFE9
:1058D00078607B681B68DA687B681B6822F040028E
:1058E000DA607B68202283F841207868FFF7FCFEAD
:1058F000002318460837BD4680BD80B58CB000AF88
:1059000078607B6893F84230DBB2222B40F0AE80A7
:105910007B689B68B3F5805F17D17B681B69002BA0
:1059200013D10023FB627B689B6ABB627B681B68A8
:105930005B689BB2C3F308039AB2BB6A1A807B68A8
:105940009B6A9A1C7B689A6226E07B689B6AFB6272
:105950000023BB627B689B68B3F5805F07D07B68E0
:105960009B68002B0AD17B681B69002B06D17B68E2
:105970001B685B68DAB2FB6A1A7008E07B681B6818
:105980005B68DBB203F07F03DAB2FB6A1A707B68F4
:105990009B6A5A1C7B689A627B68DB8D9BB2013BD9
:1059A0009BB27A681946D185002B5DD17B681B6854
:1059B000DA687B681B6822F02002DA607B681B686B
:1059C000DA687B681B6822F48072DA607B681B6887
:1059D0005A697B681B6822F001025A617B682022A9
:1059E00083F842207B6800225A637B681B6B012B83
:1059F00035D17B6800221A637B681B680C337B619E
:105A00007B6953E8003F3B613B6923F010037B62F5
:105A10007B681B680C337A6A3A62FB61F9693A6AFF
:105A200041E80023BB61BB69002BE5D17B681B68A3
:105A30001B6803F01003102B0AD10023FB607B6866
:105A40001B681B68FB607B681B685B68FB60FB680E
:105A50007B689B8D19467868FFF764FE02E07868E2
:105A6000FFF74CFE002302E0002300E0022318466B
:105A70003037BD4680BD00002DE9B04FC0B000AF4B
:105A8000C7F8F400D7F8F4301B681B6923F44050C2
:105A9000D7F8F430D968D7F8F4301A6840EA01032F
:105AA0001361D7F8F4309A68D7F8F4301B691A43B9
:105AB000D7F8F4305B691A43D7F8F430DB69134345
:105AC000C7F8F830D7F8F4301B68DB6823F41641C8
:105AD00021F00C01D7F8F4301A68D7F8F8300B43EE
